:020000040800F2
:100000001807002091010008990100089B010008D1
:100010009D0100089F010008A101000800000000E8
:10002000000000000000000000000000A301000824
:10003000A501000800000000A7010008A9010008B0
:10004000AB010008AB010008AB010008AB010008E0
:10005000AB010008AB010008AB010008AB010008D0
:10006000AB010008AB010008AB0100084507000820
:10007000AB010008AB010008AB010008AB010008B0
:10008000AB010008AB010008AB010008AB010008A0
:10009000AB010008AB010008AB010008AB01000890
:1000A000AB010008AB010008AB010008AB01000880
:1000B000AB010008AB010008AB010008AB01000870
:1000C000AB010008AB010008AB010008AB01000860
:1000D000AB010008AB010008AB010008AB01000850
:1000E000AB010008AB010008AB01000800F002F80A
:1000F00000F03FF80AA090E8000C82448344AAF183
:100100000107DA4501D100F034F8AFF2090EBAE880
:100110000F0013F0010F18BFFB1A43F0010318473B
:100120009C0E0000BC0E0000103A24BF78C878C1B5
:10013000FAD8520724BF30C830C144BF04680C60ED
:10014000704700000023002400250026103A28BF35
:1001500078C1FBD8520728BF30C148BF0B60704739
:10016000752900F04980002070471FB51FBD10B5EC
:1001700010BD00F052F91146FFF7F7FF00F0C8FE7E
:1001800000F070F903B4FFF7F2FF03BC00F078F958
:100190000948804709480047FEE7FEE7FEE7FEE71B
:1001A000FEE7FEE7FEE7FEE7FEE7FEE70448054957
:1001B000054A064B70470000ED0C0008ED000008F2
:1001C0001801002018070020180300201803002041
:1001D0000FB41CB5074B06AA7B44694600900598EE
:1001E00000F003F90020694600F012F91CBC5DF82C
:1001F00014FB0000350200002DE9F0410646002402
:1002000010687529314616A510D0AFF3008000287C
:1002100002DA404213A507E031688A0701D512A52A
:1002200002E0490704D511A5012401E0AFF30080E5
:1002300000210A2206F1240709E0B0FBF2FCB0FB22
:10024000F2F302FB1C00303078541846491C002899
:10025000F3D123462A463046BDE8F04100F067B8A6
:10026000000000002D0000002B0000002000000016
:100270002DE9F0410F460546002028622846E9682E
:10028000884770B3252805D0D5E901219047286A11
:10029000401CF2E7E9682846002688476C28044697
:1002A0000AD0682C08D04C2C35D06A2C31D0742C54
:1002B00031D07A2C2FD016E0E968064628468847C8
:1002C000B042044608D16C2E23D04FF480662846F5
:1002D000E9688847044606E06C2E03D04FF4807628
:1002E00001E01EE04026E4B1A4F14100192802D843
:1002F000203446F400663A46214628462E60FFF731
:100300002FFF60B1012808D0FF1D27F0070708372D
:10031000B4E78026DBE70026D9E73F1DAEE720469D
:10032000B2E7286ABDE8F0817047704770472DE951
:10033000F0470D4699469246044600F124080168AC
:10034000880604D5E06921F01001216000E0012059
:10035000A84201DD471B00E00027A1697A1902EBE2
:100360000900081AA0612078C00602D42046AFF325
:100370000080002608E0D4E901211AF80600904721
:10038000206A401C761C20624E45F4DB2078C006B3
:100390000AD52046AFF3008006E0D4E901213020E1
:1003A0009047206A401C2062381EA7F10107F4DC48
:1003B00007E0D4E9012118F805009047206A401CA5
:1003C0002062281EA5F10105F3DC2046AFF3008072
:1003D0002078000602D50220BDE8F0870120FBE767
:1003E00001694A1C02610878704700B58FB0CDE9F9
:1003F00001310021059105497944CDE903101146E9
:100400006846FFF735FF0FB000BD0000E5FFFFFFB6
:100410000A6802F8010B0A607047754600F02CF874
:10042000AE4605006946534620F00700854618B0E1
:1004300020B5FFF7BBFEBDE820404FF000064FF0AF
:1004400000074FF000084FF0000B21F00701AC4609
:10045000ACE8C009ACE8C009ACE8C009ACE8C00928
:100460008D46704710B50446AFF300802046BDE8C6
:100470001040FFF787BE000000487047B80000201A
:1004800001491820ABBEFEE72600020070470000BD
:1004900000B593B001214FF4017000F039FB012148
:1004A000084600F025FB0120ADF8480000208DF83B
:1004B0004B0012A93D4800F058FA3D4800F070F991
:1004C0003C4802903C480390002004901020059086
:1004D000002006908020079040000890800009903E
:1004E00000200A904FF400500B9000200C9002A9BD
:1004F0002F4800F01AFA012202212D4800F00CFAD0
:100500000B208DF8040001208DF8050000208DF8E7
:10051000060001208DF8070001A800F0B1FA0121C2
:10052000234800F031F900200D908DF838000120AB
:100530008DF839004FF460200F90002010900120BA
:100540008DF844000DA91B484C3800F061F80523D4
:100550000122002117484C3800F082F8012115488B
:100560004C3800F036F8012112484C3800F026F8DB
:1005700010484C3800F0D0F800BF0E484C3800F05E
:100580003DF80028F9D10B484C3800F0D5F800BFF1
:1005900008484C3800F028F80028F9D10121054816
:1005A0004C3800F0BEF813B000BD00000008014058
:1005B000080002404C2401401800002021B182684C
:1005C00042F00102826003E0826822F00102826050
:1005D000704721B1826842F48072826003E08268D1
:1005E00022F4807282607047014600208A6802F01F
:1005F00004020AB1012000E00020704701460020FB
:100600008A6802F008020AB1012000E00020704769
:1006100030B502460020002350680F4C20400D7971
:100620000C6844EA05242043506090680B4C20403D
:10063000D1E902542C434D7944EA450420439060AB
:10064000D06A20F470000C7C641EE4B2234340EABC
:100650000350D06230BD0000FFFEF0FFFDF7F1FF58
:10066000F0B504460D4600200021092D11DDE0689B
:10067000A5F10A0606EB4607072606FA07F18843A6
:10068000A5F10A0606EB460603FA06F10843E06008
:100690000CE0206905EB4507072606FA07F18843B9
:1006A00005EB450603FA06F108432061072A0FDA35
:1006B000606B561E06EB86071F2606FA07F1884375
:1006C000561E06EB860605FA06F10843606322E033
:1006D0000D2A0FDA206BD61F06EB86071F2606FAB7
:1006E00007F18843D61F06EB860605FA06F1084394
:1006F000206310E0E06AA2F10D0606EB86071F26D4
:1007000006FA07F18843A2F10D0606EB860605FA04
:1007100006F10843E062F0BD816841F008018160A4
:10072000704721B1826842F4A002826003E08268CF
:1007300022F4A00282607047816841F00401816068
:100740007047000010B5022000F0D0F848B1022038
:1007500000F00CF80021034800F016F801200249CF
:10076000087010BD080002401400002000F0805105
:1007700011B10349086001E0024948607047000078
:10078000040402400000024021B1026842F001026C
:10079000026004E002684FF6FE731A400260704780
:1007A00001684FF6FE721140016000210160416056
:1007B0008160C1604B49884208D14A49083949687B
:1007C00041F00F01474A083A51608AE04549143127
:1007D000884208D143490839496841F0F001414A4B
:1007E000083A51607DE03F492831884208D13D49AF
:1007F0000839496841F470613A4A083A516070E03A
:1008000038493C31884208D136490839496841F4B1
:100810007041344A083A516063E0324950318842AD
:1008200008D130490839496841F470212D4A083A05
:10083000516056E02B496431884208D12949083972
:10084000496841F47001274A083A516049E0254956
:100850007831884208D123490839496841F07061EC
:10086000204A083A51603CE01F49884206D1011FE6
:10087000096841F00F01021F116032E01A4914317A
:10088000884208D11849091F096841F0F001164A49
:10089000121F116025E014492831884208D11249FD
:1008A000091F096841F470610F4A121F116018E0B6
:1008B0000D493C31884208D10B49091F096841F4B0
:1008C0007041094A121F11600BE0074950318842FC
:1008D00007D10549091F096841F47021024A121F16
:1008E00011607047080002400804024001460020E1
:1008F000002201F0805313B1054B1A6801E0054B4B
:100900001A6802EA01030BB1012000E000207047E1
:1009100000040240000002401AB103680B43036068
:1009200002E003688B430360704710B50022026841
:1009300047F6F0739A430C6A8B6823430C69234390
:100940004C6923438C692343CC6923434C6A23437A
:100950008C6A23431A430260CB6843600B68836050
:100960004B68C36010BD416070472DE9F0410246FD
:1009700000250026002000230024002791F803C052
:100980000CF00F0591F803C00CF0100CBCF1000F37
:1009900003D091F802C04CEA050591F800C0BCF103
:1009A000000F31D0146800202BE04FF0010C0CFA3E
:1009B00000F3B1F800C00CEA03069E4220D1830088
:1009C0004FF00F0C0CFA03F7BC4305FA03FC4CEA9A
:1009D000040491F803C0BCF1280F06D14FF0010CBC
:1009E0000CFA00FCC2F814C00AE091F803C0BCF194
:1009F000480F05D14FF0010C0CFA00FCC2F810C0F2
:100A0000401C0828D1D31460B1F800C0BCF1FF0F1E
:100A100034DD546800202EE000F1080C4FF001088E
:100A200008FA0CF3B1F800C00CEA03069E4221D18B
:100A300083004FF00F0C0CFA03F7BC4305FA03FCDC
:100A40004CEA040491F803C0BCF1280F05D100F171
:100A5000080C08FA0CF8C2F8148091F803C0BCF135
:100A6000480F07D100F1080C4FF0010808FA0CF804
:100A7000C2F81080401C0828CED35460BDE8F08135
:100A800070B5002100230F22C47804B3154C2468EC
:100A900004F4E064C4F5E064210AC1F10403CA402F
:100AA000447804FA03F184781440214309010E4C80
:100AB0000678A155047804F01F050124AC400578A0
:100AC0006D11AD0005F1E025C5F8004109E004789D
:100AD00004F01F050124AC40044D0678761145F85A
:100AE000264070BD0CED00E000E400E080E100E095
:100AF00029B1064A52690243044B5A6104E0034A91
:100B000052698243014B5A61704700000010024055
:100B100029B1064A92690243044B9A6104E0034AF0
:100B200092698243014B9A617047000000100240B5
:100B300030B500210022002400232D4D6D6805F002
:100B40000C0121B1042905D0082923D105E0294D44
:100B5000056022E0274D05601FE0254D6D6805F416
:100B60007012234D6D6805F48034022505EB924226
:100B70001CB9214D554305600BE01D4D6D6805F412
:100B800000351DB11C4D5543056002E0194D55431C
:100B9000056002E0174D056000BF00BF144D6D6891
:100BA00005F0F0010909154D6B5C0568DD404560F5
:100BB0000F4D6D6805F4E061090A104D6B5C4568E6
:100BC000DD4085600A4D6D6805F46051C90A0B4D22
:100BD0006B5C4568DD40C560054D6D6805F44041BE
:100BE000890B074D6B5CC568B5FBF3F5056130BD3E
:100BF0000010024000127A0000093D0000000020B1
:100C00001000002010B500F001F810BD0CB5002058
:100C1000019000903348006840F48030314908600A
:100C200000BF3048006800F4003000900198401C7C
:100C30000190009818B90198B0F5A06FF1D129483A
:100C4000006800F4003010B10120009001E00020A5
:100C500000900098012843D12348006840F010001C
:100C6000214908600846006820F00700086008462F
:100C7000006840F0020008601A484068194948605E
:100C80000846406848600846406840F48060486014
:100C90000846406820F47C1048600846406840F4EC
:100CA000E81048600846006840F08070086000BFA7
:100CB0000C48006800F000700028F9D0094840682E
:100CC00020F00300074948600846406840F00200F1
:100CD000486000BF0348406800F00C000828F9D1C4
:100CE0000CBD0000001002400020024010B5134867
:100CF000006840F00100114908600846406810494A
:100D000008400E494860084600680E4908400B49F3
:100D100008600846006820F48020086008464068A3
:100D200020F4FE0048604FF41F008860FFF76AFF60
:100D30004FF000600449086010BD00000010024040
:100D40000000FFF8FFFFF6FE08ED00E000B585B0FB
:100D5000012144F20400FFF7DBFE4FF40070ADF810
:100D6000100003208DF8120018208DF8130004A93C
:100D70001348FFF7FAFD4FF48060ADF8100004202F
:100D80008DF8130004A90E48FFF7EFFD4FF4E13092
:100D900000900020ADF80400ADF80600ADF80800A2
:100DA000ADF80C000C20ADF80A006946054800F0CB
:100DB0003FF80121034800F022F805B000BD000013
:100DC000000801400038014010B5044600BF8021F2
:100DD000044800F020F80028F9D02146014800F02E
:100DE00093F810BD0038014010B5044603E014F834
:100DF000010BFFF7E9FF20780028F8D110BD21B1E1
:100E0000828942F40052828104E082894DF6FF73A8
:100E10001A408281704702460020B1F5007F00D160
:100E200000BF13880B400BB1012000E00020704789
:100E30002DE9F04786B005460E460024A24600BFC5
:100E4000A1460027B08900B100BF2F462C8A4CF67E
:100E5000FF700440F08804432C82AC894EF6F310F6
:100E60000440B08831890843718908430443AC8148
:100E7000AC8A4FF6FF400440B0890443AC8201A81D
:100E8000FFF756FE1F48874202D1DDF810A001E0AF
:100E9000DDF80CA0A88900F4004040B10AEBCA00BC
:100EA00000EB0A1031684900B0FBF1F807E00AEBEB
:100EB000CA0000EB0A1031688900B0FBF1F8642029
:100EC000B8FBF0F004012009642101FB1089A88916
:100ED00000F4004040B1322000EBC900B0FBF1F05B
:100EE00000F00700044308E0322000EB0910642101
:100EF000B0FBF1F000F00F0004432C8106B0BDE818
:100F0000F087000000380140C1F30802828070477A
:100F1000FFF71CFFFFF7BCFA2FE018480078002805
:100F20002BD0002015490870002500BF04E01449AB
:100F300031F810100D44401C1028F8DBC5F30F14D5
:100F400040F6E440604340F6FF71B0FBF1F63346F3
:100F500022460CA11648FFF73BF91548FFF744FF5E
:100F600010211448FFF7FFFC01211248FFF70CFC89
:100F700001211148FFF7D5FB00BFCEE71400002088
:100F800018000020444D4120646F6E65207C204194
:100F90005647204144433D2575207C20566F6C7494
:100FA0006167653D256C75206D560D0A00000000D7
:100FB000380000200800024000240140DC0F000837
:100FC000000000201800000028010008F40F0008AD
:100FD0001800002000070000440100080000000085
:100FE00001020304010203040607080902040608BB
:040FF00000000000FD
:04000005080001915D
:00000001FF
